{
  "_format": "hh-sol-artifact-1",
  "contractName": "TodoListDApp",
  "sourceName": "contracts/TodoListDApp.sol",
  "abi": [
    {
      "inputs": [],
      "stateMutability": "nonpayable",
      "type": "constructor"
    },
    {
      "anonymous": false,
      "inputs": [
        {
          "indexed": false,
          "internalType": "string",
          "name": "_name",
          "type": "string"
        }
      ],
      "name": "NameChange",
      "type": "event"
    },
    {
      "anonymous": false,
      "inputs": [
        {
          "indexed": false,
          "internalType": "address",
          "name": "account",
          "type": "address"
        },
        {
          "indexed": false,
          "internalType": "uint256",
          "name": "userId",
          "type": "uint256"
        },
        {
          "indexed": false,
          "internalType": "string",
          "name": "title",
          "type": "string"
        },
        {
          "indexed": false,
          "internalType": "string",
          "name": "description",
          "type": "string"
        },
        {
          "indexed": false,
          "internalType": "string",
          "name": "tag",
          "type": "string"
        }
      ],
      "name": "TodoEvent",
      "type": "event"
    },
    {
      "inputs": [
        {
          "internalType": "uint256",
          "name": "",
          "type": "uint256"
        }
      ],
      "name": "TodoList",
      "outputs": [
        {
          "internalType": "address",
          "name": "account",
          "type": "address"
        },
        {
          "internalType": "uint256",
          "name": "userId",
          "type": "uint256"
        },
        {
          "internalType": "string",
          "name": "title",
          "type": "string"
        },
        {
          "internalType": "string",
          "name": "description",
          "type": "string"
        },
        {
          "internalType": "string",
          "name": "tag",
          "type": "string"
        }
      ],
      "stateMutability": "view",
      "type": "function"
    },
    {
      "inputs": [
        {
          "internalType": "string",
          "name": "_title",
          "type": "string"
        },
        {
          "internalType": "string",
          "name": "_description",
          "type": "string"
        },
        {
          "internalType": "string",
          "name": "_tag",
          "type": "string"
        }
      ],
      "name": "createTodoList",
      "outputs": [],
      "stateMutability": "nonpayable",
      "type": "function"
    },
    {
      "inputs": [
        {
          "internalType": "uint256",
          "name": "_id",
          "type": "uint256"
        }
      ],
      "name": "deleteTodoItem",
      "outputs": [],
      "stateMutability": "nonpayable",
      "type": "function"
    },
    {
      "inputs": [
        {
          "internalType": "uint256",
          "name": "_id",
          "type": "uint256"
        },
        {
          "internalType": "string",
          "name": "_title",
          "type": "string"
        },
        {
          "internalType": "string",
          "name": "_description",
          "type": "string"
        },
        {
          "internalType": "string",
          "name": "_tag",
          "type": "string"
        }
      ],
      "name": "editTodoItem",
      "outputs": [],
      "stateMutability": "nonpayable",
      "type": "function"
    },
    {
      "inputs": [],
      "name": "getAllTodoList",
      "outputs": [
        {
          "components": [
            {
              "internalType": "address",
              "name": "account",
              "type": "address"
            },
            {
              "internalType": "uint256",
              "name": "userId",
              "type": "uint256"
            },
            {
              "internalType": "string",
              "name": "title",
              "type": "string"
            },
            {
              "internalType": "string",
              "name": "description",
              "type": "string"
            },
            {
              "internalType": "string",
              "name": "tag",
              "type": "string"
            }
          ],
          "internalType": "struct TodoListDApp.TodoListObj[]",
          "name": "",
          "type": "tuple[]"
        }
      ],
      "stateMutability": "view",
      "type": "function"
    },
    {
      "inputs": [],
      "name": "getUserName",
      "outputs": [
        {
          "internalType": "string",
          "name": "",
          "type": "string"
        }
      ],
      "stateMutability": "view",
      "type": "function"
    },
    {
      "inputs": [
        {
          "internalType": "string",
          "name": "username",
          "type": "string"
        }
      ],
      "name": "setUserDetails",
      "outputs": [],
      "stateMutability": "nonpayable",
      "type": "function"
    }
  ],
  "bytecode": "0x608060405260006001553480156200001657600080fd5b50336000806101000a81548173ffffffffffffffffffffffffffffffffffffffff021916908373ffffffffffffffffffffffffffffffffffffffff1602179055506040518060400160405280600981526020017f416e6f6e796d6f75730000000000000000000000000000000000000000000000815250600260003373ffffffffffffffffffffffffffffffffffffffff1673ffffffffffffffffffffffffffffffffffffffff1681526020019081526020016000206000019081620000dd91906200035e565b5062000445565b600081519050919050565b7f4e487b7100000000000000000000000000000000000000000000000000000000600052604160045260246000fd5b7f4e487b7100000000000000000000000000000000000000000000000000000000600052602260045260246000fd5b600060028204905060018216806200016657607f821691505b6020821081036200017c576200017b6200011e565b5b50919050565b60008190508160005260206000209050919050565b60006020601f8301049050919050565b600082821b905092915050565b600060088302620001e67fffffffffffffffffffffffffffffffffffffffffffffffffffffffffffffffff82620001a7565b620001f28683620001a7565b95508019841693508086168417925050509392505050565b6000819050919050565b6000819050919050565b60006200023f6200023962000233846200020a565b62000214565b6200020a565b9050919050565b6000819050919050565b6200025b836200021e565b620002736200026a8262000246565b848454620001b4565b825550505050565b600090565b6200028a6200027b565b6200029781848462000250565b505050565b5b81811015620002bf57620002b360008262000280565b6001810190506200029d565b5050565b601f8211156200030e57620002d88162000182565b620002e38462000197565b81016020851015620002f3578190505b6200030b620003028562000197565b8301826200029c565b50505b505050565b600082821c905092915050565b6000620003336000198460080262000313565b1980831691505092915050565b60006200034e838362000320565b9150826002028217905092915050565b6200036982620000e4565b67ffffffffffffffff811115620003855762000384620000ef565b5b6200039182546200014d565b6200039e828285620002c3565b600060209050601f831160018114620003d65760008415620003c1578287015190505b620003cd858262000340565b8655506200043d565b601f198416620003e68662000182565b60005b828110156200041057848901518255600182019150602085019450602081019050620003e9565b868310156200043057848901516200042c601f89168262000320565b8355505b6001600288020188555050505b505050505050565b61179480620004556000396000f3fe608060405234801561001057600080fd5b506004361061007d5760003560e01c80634f8bfdb51161005b5780634f8bfdb5146100f057806363412fb91461010c578063b7f4487f14610128578063d2b169f8146101465761007d565b806312958f1c1461008257806312f616a2146100a05780631c59c710146100bc575b600080fd5b61008a610162565b6040516100979190610c49565b60405180910390f35b6100ba60048036038101906100b59190610cb5565b610234565b005b6100d660048036038101906100d19190610cb5565b6102ca565b6040516100e7959493929190610d32565b60405180910390f35b61010a60048036038101906101059190610ecf565b6104b8565b005b61012660048036038101906101219190610f76565b6106ed565b005b61013061083e565b60405161013d91906111df565b60405180910390f35b610160600480360381019061015b9190611261565b610ab3565b005b6060600260003373ffffffffffffffffffffffffffffffffffffffff1673ffffffffffffffffffffffffffffffffffffffff16815260200190815260200160002060000180546101b1906112dd565b80601f01602080910402602001604051908101604052809291908181526020018280546101dd906112dd565b801561022a5780601f106101ff5761010080835404028352916020019161022a565b820191906000526020600020905b81548152906001019060200180831161020d57829003601f168201915b5050505050905090565b600060048054905011156102c757600481815481106102565761025561130e565b5b9060005260206000209060050201600080820160006101000a81549073ffffffffffffffffffffffffffffffffffffffff021916905560018201600090556002820160006102a49190610b5c565b6003820160006102b49190610b5c565b6004820160006102c49190610b5c565b50505b50565b60036020528060005260406000206000915090508060000160009054906101000a900473ffffffffffffffffffffffffffffffffffffffff1690806001015490806002018054610319906112dd565b80601f0160208091040260200160405190810160405280929190818152602001828054610345906112dd565b80156103925780601f1061036757610100808354040283529160200191610392565b820191906000526020600020905b81548152906001019060200180831161037557829003601f168201915b5050505050908060030180546103a7906112dd565b80601f01602080910402602001604051908101604052809291908181526020018280546103d3906112dd565b80156104205780601f106103f557610100808354040283529160200191610420565b820191906000526020600020905b81548152906001019060200180831161040357829003601f168201915b505050505090806004018054610435906112dd565b80601f0160208091040260200160405190810160405280929190818152602001828054610461906112dd565b80156104ae5780601f10610483576101008083540402835291602001916104ae565b820191906000526020600020905b81548152906001019060200180831161049157829003601f168201915b5050505050905085565b3360036000600154815260200190815260200160002060000160006101000a81548173ffffffffffffffffffffffffffffffffffffffff021916908373ffffffffffffffffffffffffffffffffffffffff1602179055506001546003600060015481526020019081526020016000206001018190555082600360006001548152602001908152602001600020600201908161055391906114e9565b5081600360006001548152602001908152602001600020600301908161057991906114e9565b5080600360006001548152602001908152602001600020600401908161059f91906114e9565b5060046040518060a001604052803373ffffffffffffffffffffffffffffffffffffffff168152602001600154815260200185815260200184815260200183815250908060018154018082558091505060019003906000526020600020906005020160009091909190915060008201518160000160006101000a81548173ffffffffffffffffffffffffffffffffffffffff021916908373ffffffffffffffffffffffffffffffffffffffff16021790555060208201518160010155604082015181600201908161067091906114e9565b50606082015181600301908161068691906114e9565b50608082015181600401908161069c91906114e9565b5050506106a7610b42565b7f80af1eda6137367a669ce988765a9289cc78c50e96055dfe1f12104554dc975a336001548585856040516106e0959493929190610d32565b60405180910390a1505050565b600060048054905011156108385733600485815481106107105761070f61130e565b5b906000526020600020906005020160000160006101000a81548173ffffffffffffffffffffffffffffffffffffffff021916908373ffffffffffffffffffffffffffffffffffffffff16021790555082600485815481106107745761077361130e565b5b9060005260206000209060050201600201908161079191906114e9565b5081600485815481106107a7576107a661130e565b5b906000526020600020906005020160030190816107c491906114e9565b5080600485815481106107da576107d961130e565b5b906000526020600020906005020160040190816107f791906114e9565b507f80af1eda6137367a669ce988765a9289cc78c50e96055dfe1f12104554dc975a338585858560405161082f959493929190610d32565b60405180910390a15b50505050565b60606004805480602002602001604051908101604052809291908181526020016000905b82821015610aaa57838290600052602060002090600502016040518060a00160405290816000820160009054906101000a900473ffffffffffffffffffffffffffffffffffffffff1673ffffffffffffffffffffffffffffffffffffffff1673ffffffffffffffffffffffffffffffffffffffff168152602001600182015481526020016002820180546108f5906112dd565b80601f0160208091040260200160405190810160405280929190818152602001828054610921906112dd565b801561096e5780601f106109435761010080835404028352916020019161096e565b820191906000526020600020905b81548152906001019060200180831161095157829003601f168201915b50505050508152602001600382018054610987906112dd565b80601f01602080910402602001604051908101604052809291908181526020018280546109b3906112dd565b8015610a005780601f106109d557610100808354040283529160200191610a00565b820191906000526020600020905b8154815290600101906020018083116109e357829003601f168201915b50505050508152602001600482018054610a19906112dd565b80601f0160208091040260200160405190810160405280929190818152602001828054610a45906112dd565b8015610a925780601f10610a6757610100808354040283529160200191610a92565b820191906000526020600020905b815481529060010190602001808311610a7557829003601f168201915b50505050508152505081526020019060010190610862565b50505050905090565b8181600260003373ffffffffffffffffffffffffffffffffffffffff1673ffffffffffffffffffffffffffffffffffffffff1681526020019081526020016000206000019182610b049291906115c6565b507fd3807fa54fb4a876f91813a2da7f5c40d1370d627f4837d7090b0118ac909f4a8282604051610b369291906116c3565b60405180910390a15050565b60016000815480929190610b5590611716565b9190505550565b508054610b68906112dd565b6000825580601f10610b7a5750610b99565b601f016020900490600052602060002090810190610b989190610b9c565b5b50565b5b80821115610bb5576000816000905550600101610b9d565b5090565b600081519050919050565b600082825260208201905092915050565b60005b83811015610bf3578082015181840152602081019050610bd8565b60008484015250505050565b6000601f19601f8301169050919050565b6000610c1b82610bb9565b610c258185610bc4565b9350610c35818560208601610bd5565b610c3e81610bff565b840191505092915050565b60006020820190508181036000830152610c638184610c10565b905092915050565b6000604051905090565b600080fd5b600080fd5b6000819050919050565b610c9281610c7f565b8114610c9d57600080fd5b50565b600081359050610caf81610c89565b92915050565b600060208284031215610ccb57610cca610c75565b5b6000610cd984828501610ca0565b91505092915050565b600073ffffffffffffffffffffffffffffffffffffffff82169050919050565b6000610d0d82610ce2565b9050919050565b610d1d81610d02565b82525050565b610d2c81610c7f565b82525050565b600060a082019050610d476000830188610d14565b610d546020830187610d23565b8181036040830152610d668186610c10565b90508181036060830152610d7a8185610c10565b90508181036080830152610d8e8184610c10565b90509695505050505050565b600080fd5b600080fd5b7f4e487b7100000000000000000000000000000000000000000000000000000000600052604160045260246000fd5b610ddc82610bff565b810181811067ffffffffffffffff82111715610dfb57610dfa610da4565b5b80604052505050565b6000610e0e610c6b565b9050610e1a8282610dd3565b919050565b600067ffffffffffffffff821115610e3a57610e39610da4565b5b610e4382610bff565b9050602081019050919050565b82818337600083830152505050565b6000610e72610e6d84610e1f565b610e04565b905082815260208101848484011115610e8e57610e8d610d9f565b5b610e99848285610e50565b509392505050565b600082601f830112610eb657610eb5610d9a565b5b8135610ec6848260208601610e5f565b91505092915050565b600080600060608486031215610ee857610ee7610c75565b5b600084013567ffffffffffffffff811115610f0657610f05610c7a565b5b610f1286828701610ea1565b935050602084013567ffffffffffffffff811115610f3357610f32610c7a565b5b610f3f86828701610ea1565b925050604084013567ffffffffffffffff811115610f6057610f5f610c7a565b5b610f6c86828701610ea1565b9150509250925092565b60008060008060808587031215610f9057610f8f610c75565b5b6000610f9e87828801610ca0565b945050602085013567ffffffffffffffff811115610fbf57610fbe610c7a565b5b610fcb87828801610ea1565b935050604085013567ffffffffffffffff811115610fec57610feb610c7a565b5b610ff887828801610ea1565b925050606085013567ffffffffffffffff81111561101957611018610c7a565b5b61102587828801610ea1565b91505092959194509250565b600081519050919050565b600082825260208201905092915050565b6000819050602082019050919050565b61106681610d02565b82525050565b61107581610c7f565b82525050565b600082825260208201905092915050565b600061109782610bb9565b6110a1818561107b565b93506110b1818560208601610bd5565b6110ba81610bff565b840191505092915050565b600060a0830160008301516110dd600086018261105d565b5060208301516110f0602086018261106c565b5060408301518482036040860152611108828261108c565b91505060608301518482036060860152611122828261108c565b9150506080830151848203608086015261113c828261108c565b9150508091505092915050565b600061115583836110c5565b905092915050565b6000602082019050919050565b600061117582611031565b61117f818561103c565b9350836020820285016111918561104d565b8060005b858110156111cd57848403895281516111ae8582611149565b94506111b98361115d565b925060208a01995050600181019050611195565b50829750879550505050505092915050565b600060208201905081810360008301526111f9818461116a565b905092915050565b600080fd5b600080fd5b60008083601f84011261122157611220610d9a565b5b8235905067ffffffffffffffff81111561123e5761123d611201565b5b60208301915083600182028301111561125a57611259611206565b5b9250929050565b6000806020838503121561127857611277610c75565b5b600083013567ffffffffffffffff81111561129657611295610c7a565b5b6112a28582860161120b565b92509250509250929050565b7f4e487b7100000000000000000000000000000000000000000000000000000000600052602260045260246000fd5b600060028204905060018216806112f557607f821691505b602082108103611308576113076112ae565b5b50919050565b7f4e487b7100000000000000000000000000000000000000000000000000000000600052603260045260246000fd5b60008190508160005260206000209050919050565b60006020601f8301049050919050565b600082821b905092915050565b60006008830261139f7fffffffffffffffffffffffffffffffffffffffffffffffffffffffffffffffff82611362565b6113a98683611362565b95508019841693508086168417925050509392505050565b6000819050919050565b60006113e66113e16113dc84610c7f565b6113c1565b610c7f565b9050919050565b6000819050919050565b611400836113cb565b61141461140c826113ed565b84845461136f565b825550505050565b600090565b61142961141c565b6114348184846113f7565b505050565b5b818110156114585761144d600082611421565b60018101905061143a565b5050565b601f82111561149d5761146e8161133d565b61147784611352565b81016020851015611486578190505b61149a61149285611352565b830182611439565b50505b505050565b600082821c905092915050565b60006114c0600019846008026114a2565b1980831691505092915050565b60006114d983836114af565b9150826002028217905092915050565b6114f282610bb9565b67ffffffffffffffff81111561150b5761150a610da4565b5b61151582546112dd565b61152082828561145c565b600060209050601f8311600181146115535760008415611541578287015190505b61154b85826114cd565b8655506115b3565b601f1984166115618661133d565b60005b8281101561158957848901518255600182019150602085019450602081019050611564565b868310156115a657848901516115a2601f8916826114af565b8355505b6001600288020188555050505b505050505050565b600082905092915050565b6115d083836115bb565b67ffffffffffffffff8111156115e9576115e8610da4565b5b6115f382546112dd565b6115fe82828561145c565b6000601f83116001811461162d576000841561161b578287013590505b61162585826114cd565b86555061168d565b601f19841661163b8661133d565b60005b828110156116635784890135825560018201915060208501945060208101905061163e565b86831015611680578489013561167c601f8916826114af565b8355505b6001600288020188555050505b50505050505050565b60006116a28385610bc4565b93506116af838584610e50565b6116b883610bff565b840190509392505050565b600060208201905081810360008301526116de818486611696565b90509392505050565b7f4e487b7100000000000000000000000000000000000000000000000000000000600052601160045260246000fd5b600061172182610c7f565b91507fffffffffffffffffffffffffffffffffffffffffffffffffffffffffffffffff8203611753576117526116e7565b5b60018201905091905056fea2646970667358221220595838809fe23ecfe8b9a493ab3a830d08799938e347fac13bf1fc1b0d9da33064736f6c63430008110033",
  "linkReferences": {},
  "deployedLinkReferences": {}
}